:020000041000EA
:1000000000B5324B212058609868022188439860DF
:10001000D860186158612E4B002199600221596106
:100020000121F02299502B49196001219960352056
:1000300000F044F80222904214D00621196600F024
:1000400034F8196E01211966002018661A6600F04E
:100050002CF8196E196E196E052000F02FF8012189
:100060000842F9D1002199601B49196000215960AB
:100070001A491B48016001219960EB211966A021F2
:10008000196600F012F800219960164914480160C1
:100090000121996001BC002800D000471248134993
:1000A000086003C880F30888084703B5996A0420EC
:1000B0000142FBD001200142F8D103BD02B5186610
:1000C0001866FFF7F2FF186E186E02BD00000240BE
:1000D000000000180000070000035F00212200005C
:1000E000F4000018222000A00001001008ED00E03C
:1000F00000000000000000000000000074B24E7A12
:1001000000200420F7010010C3010010C5010010F9
:10011000C1010010C1010010C1010010C101001097
:10012000C1010010C1010010C1010010C701001081
:10013000C1010010C1010010C9010010CB01001065
:10014000CD010010CD010010CD010010CD01001037
:10015000CD010010CD010010CD010010CD01001027
:10016000CD010010CD010010CD010010CD01001017
:10017000CD010010CD010010CD010010CD01001007
:10018000CD010010CD010010CD010010CD010010F7
:10019000CD010010CD010010CD010010CD010010E7
:1001A000CD010010CD010010CD010010CD010010D7
:1001B000CD010010CD010010CD010010CD010010C7
:1001C00000BE00BE00BE00BE00BE00BE00F04BF888
:1001D000103800BEF2EB88712C9700105497001075
:1001E0003402001090A31AE700202149086006C8D5
:1001F00081F3088810471F48006800282FD10DA4FC
:100200000ECC002902D000F012F8F9E71A491B4A77
:10021000002000E001C19142FCD1194988471949E9
:1002200088471949884700BEFDE701C901C29A42C3
:10023000FBD3704754970010C0000020200E002010
:10024000B4A400100000042000000420B4A4001096
:1002500000100420001004200000000070470B482C
:1002600003F04AFA0047EFF30580C0B27047000080
:1002700008ED00E0000000D0200E0020441C00200B
:10028000951B0010E5020010A91C00105756000035
:1002900006005250ABB36053D08E0010060052508F
:1002A000861C0302E08E0010060052505422A29DCC
:1002B000F08E001005005250DE65F468B4A4001002
:1002C000F8B5C046044B10B5002B03D003490448D1
:1002D00000E000BF10BDC046000000006019002013
:1002E0002880001000B58DB004F000FB194800F024
:1002F00037F810230A93023B099301330893033B19
:10030000079301330693033B059301330493093BA1
:100310000393013302930133019305330093033BAD
:10032000082207210E2000F04DF80B4800F0B5FA26
:1003300000F0F2F800F074F900E030BF074B1B78D2
:10034000002BFAD100F02EF900F052F800200DB089
:1003500000BDC04661070010DCFF01003D1C00200D
:1003600070B50500E121154C4902200000F088FB22
:10037000032000F092FAD0231B0602229A62013A6F
:100380005A620221012000F065FA0221002000F0EB
:1003900061FA2900142001F04BFE0121142001F024
:1003A0002FFE3023A363626B08331340044A1360AB
:1003B000616B07230B40136070BDC04600400340D3
:1003C000345003400FB430B583B006AB20CB01935B
:1003D000002406E0019B1A1D0192186800F052FAF1
:1003E0000134AC42F6DB03B030BC08BC04B01847A3
:1003F00010B5044B802252031A60034800F0EEFA55
:1004000010BDC04680E200E00040034010B5054B3F
:100410001B689A685B7BDB00D158034804F05AFAEA
:1004200010BDC046D81400202880001010B5024826
:1004300004F050FA10BDC0463C800010F8B5CE461E
:10044000474680B51F4E33689A7B04321E4C1F48C6
:1004500000232100814604F03DFA1D4B21009846FF
:10046000180004F037FA1B4F2823252221003800FA
:1004700004F030FA33689A689B7BDB00D158164D44
:10048000280004F027FA33685A7B04320023210045
:10049000484604F01FFA2100404604F01BFA2B23C3
:1004A0001E222100380004F015FA33689A685B7B3D
:1004B000DB00D158280004F00DFAC0BCB946B046A4
:1004C000F8BDC046D8140020708100104080001094
:1004D0004C800010508000105C80001070B504004B
:1004E0001D0002604160037300234373FF22827387
:1004F0000361EE00300004F07BF8A0603200049944
:1005000004F0B2F8034B1B68AB4201DA014B1D60EB
:1005100070BDC0461C1C0020F0B5CE46474680B5D5
:100520008FB0142004F064F88046184E3060142018
:1005300004F05EF8164F386006AD164B99462B0056
:100540004A4613CA13C313CA13C303CA03C31249C7
:100550000095042300224046FFF7C0FF02AD4B4642
:1005600020332A0013CB13C21B68136032680B4977
:10057000386800950223FFF7B1FF094B32681A6013
:100580000FB0C0BCB946B046F0BDC04658190020F7
:10059000F81A002040810010608000106C8000106C
:1005A000D814002010B5084C2368986804F03EF871
:1005B000206804F03BF8054C2368986804F036F88E
:1005C000206804F033F810BD58190020F81A0020F4
:1005D0000FB470B582B006AD40CD0D4C0D48002370
:1005E0001A22210004F076F90B48210004F072F978
:1005F0000A4828232322210004F06CF901952900E0
:10060000300004F067F902B070BC08BC04B01847B1
:1006100070810010408000104C800010508000104D
:10062000F8B5344B1B78002B02D1324B01221A70E3
:10063000314C324F002300222100380004F04AF9E7
:100640002F4E2100300004F045F92E4D282324229E
:100650002100280004F03EF92B4804F03BF9002368
:1006600014222100380004F035F92100300004F094
:1006700031F9282320222100280004F02BF92348F7
:1006800004F028F9224B1B68197B9B681A682148E3
:10069000FFF79EFF00240EE017491A482B231E2265
:1006A00004F018F91A4B1B689A68E300D1581A48ED
:1006B00004F010F90134164B1B681B7BA34217DDB5
:1006C000221D92B20C4D0D480023290004F002F9BE
:1006D0000B48290004F0FEF80D4B1B685B7BA3421E
:1006E000DAD0054907482823252204F0F3F8D9E792
:1006F000F8BDC0463D1C00207081001040800010F5
:100700004C800010508000107C8000109C800010F5
:10071000D8140020D08000105C80001070B50C4C04
:1007200026682060FFF77CFF23681D7B0CE02A1DF4
:1007300092B2084C08480023210004F0CBF8074887
:10074000210004F0C7F80135337BAB42EFDC70BD0C
:10075000D814002070810010408000104C800010E0
:1007600010B582B024E06B46DC79314B1B681B6905
:10077000002B03D020009847002856D12D4A13683B
:10078000591C11602C4AD454732C3DD025D80A2C06
:1007900001D0202C0AD1264B1A689368527BD200D4
:1007A0009B185B68002B03D0984701E0082C18D0F9
:1007B000224B9B6910210A001A40194235D16B4621
:1007C000D91D002ACFD11D4B9B69DB06FBD41B4BE7
:1007D0001B680B7001320131F3E7772C09D07F2CB5
:1007E000E6D1134B1B68186800281AD0FFF796FF54
:1007F000DEE70F4B1A68537B002BD9D09373013B74
:100800005373FFF71BFED3E7094B1B685A7B197B19
:1008100001398A42CCDA9A7301325A73FFF70EFE1D
:10082000C6E7074B00221A70C2E702B010BDC046EF
:10083000D8140020DC190020781900200040034063
:100840003D1C002010B5024B1868FFF767FF10BD74
:10085000F81A002010B58300084A944663441A68C9
:1008600040246240803414408022520113431C60B3
:10087000C000034B9C466044416010BD04C0014071
:100880000040014010B501238340D022120693623C
:1008900093610521FFF7DEFF10BD70B50500002450
:1008A00001E06D0801341F2C05D8EB07F9D52000B5
:1008B000FFF7E8FFF5E770BDEFF3108072B6034B6A
:1008C0001B68002BFBD0BFF35F8F70472C0100D05B
:1008D000BFF35F8F024B00221A6080F310887047CD
:1008E0002C0100D0F8B506000C001500FFF7E4FF5E
:1008F000E308F718F15C07222240012393400B42E2
:1009000005D1DBB20B433B70FFF7E2FFF8BD2100DE
:10091000280001F0EBF9F0B583B006000191140056
:100920001F00FFF7C9FF00E00134BC420CD8E30808
:10093000F518F35C0721214001228A401A42F3D1C5
:10094000D2B21A432A7001E001246442FFF7C0FFCB
:10095000002C02DB200003B0F0BD019B002BF9D07E
:10096000089801F0C3F90000034B1B6802201840EF
:10097000431E9841C0B2704700C00640002307E004
:10098000054A9A189200BFF35F8F0021116001336E
:100990001F2BF5D97047C04640000034054A107837
:1009A000431CDBB21370172B02D9130010221A70EC
:1009B0007047C046C004002010B582B00100054C4D
:1009C000054B00931F2318222000FFF7A4FF02B05D
:1009D00010BDC046AC14002074810010054B984235
:1009E00004D08022D203044B1A6070478022120484
:1009F000F9E7C0460080034000E0004070B5040005
:100A00000D00062001F08CFAC000290002F0C8FE9B
:100A1000C60908D00E4B9E4217D87F2303400133EE
:100A200035005E0800E001256562A6622C34802353
:100A30009B01234300221A60062001F071FA800016
:100A4000A901891902F0ACFE70BD0026014DEBE74B
:100A5000FEFF0000FFFF0000002909D00A22064B1C
:100A60009C46604443425841044B4000C252704788
:100A700080225200F3E7C0460080FCBF201C00200B
:100A800070B505000C00062001F04AFA002829D0B4
:100A9000164B9D4227D08022D203154B1A60154B6E
:100AA0001A60154B9B6811009943FAD10021280068
:100AB000FFF7D2FF21002800FFF7A0FF29002C310B
:100AC000EB6A602253400E321A4080235B010B43D5
:100AD0001A600A4B2B6380239B010B4310221A6080
:100AE0000323AB6470BD80221204D6E7008003406C
:100AF00000E0004000F0004000C0004001030000A2
:100B000070B505000C00080000F010FD200000F09A
:100B1000E1FD0849200000F021FDFFF73FFF064BF3
:100B20009C466044800068602C75044BA400E5502E
:100B300070BDC046350E001040000034E0190020A2
:100B40000A4B1A68EFF3108172B61368002BFCD0C1
:100B5000BFF35F8F054B1B68BFF35F8F00221A60E6
:100B600081F3108840BF002000217047001C002046
:100B700010B5002920D003681B7B99421CD88368DC
:100B8000154CA446614409015B181C685968002A89
:100B900018D003681B7B9A4214D883680E48844699
:100BA000624412019B181A685B6801208B4201D8CD
:100BB0000ED00020C0B210BD084B094A09483B21A5
:100BC00001F076F8054B064A06483B2101F070F823
:100BD000A242EFD8EDE7C046FFFFFF0FD88100101B
:100BE00044840010A481001010B500291DD0037B9F
:100BF00099421AD804684B005B18033BE41800299B
:100C000019D0002A1DD0914221D0002A25D0037B83
:100C10009A4222D8006853009B18033BC31899706E
:100C2000217800291FD1227010BD104B104A1148A5
:100C3000692101F03DF8104B104A0E48703101F067
:100C400037F80F4B0D4A0B48712101F031F80D4B6D
:100C50000A4A0848722101F02BF8044B044A05485F
:100C6000692101F025F859702270DDE70C8200102F
:100C7000B084001028820010708200108C84001054
:100C80007C8200108882001070B506000D001400F0
:100C9000002914D0002A14D043688068984700289F
:100CA00006D0220029003000FFF79EFF280007E051
:100CB0002A0021003000FFF797FF200000E010001D
:100CC00070BD0800FCE70000F0B583B0050000929D
:100CD00001930AAB1C780BAB1F78002C26D003685D
:100CE0005A7B944207D10123002B19D1002C3AD111
:100CF000200003B0F0BD002C0CD01A7B944209D820
:100D00001A6863001B19033BD3189B78002BEBD0A8
:100D10000123E9E73C4B3D4A3D48692100F0C8FF0B
:100D20003C4B3D4A3D48652100F0C2FF03689C7B77
:100D3000002CDBD011D01A7B94420ED81A686100C7
:100D400009190339521851789973002900D1D973C0
:100D50000023937053701370C8E72B4B2B4A2C4819
:100D6000692100F0A5FF002C37D02B681B7B9C422B
:100D700033D8AB682A4AA21812019B18009A1A604D
:100D8000019A5A60089A9A60099ADA602E68002CD3
:100D900029D02ED0337B9C422BD8336862001219A5
:100DA000033A9B1800229A705A701A70717B2200C5
:100DB0003000FFF769FF7073844299D1287D009A53
:100DC000019B00F013FC061E01D0002F17D00C9BD6
:100DD000002B00D18CE71E708AE7124B124A0F4895
:100DE0003B2100F065FF114B114A0948A62100F094
:100DF0005FFF054B054A0648692100F059FF286846
:100E0000210000F04BFEE2E70C820010B0840010DD
:100E100028820010A0820010BC840010A481001061
:100E2000FFFFFF0FD881001044840010A081001044
:100E3000A0840010F0B5DE4657464E464546E0B564
:100E40008BB0099000230893B24B8200D55833E051
:100E5000B14BB24AB2483D2100F02AFFB14BB24A31
:100E6000B2483B2100F024FFB14BB24AAF488C217D
:100E700000F01EFFB04BAF4AAC48902100F018FFC5
:100E8000A84BAE4AA948402100F012FF43461A6819
:100E90005B68099800F0AAFB00239B469A466B68A2
:100EA000BFF35F8F00221A6089F310885346002B2E
:100EB00053D1002800D126E100F044FB02000B1EB4
:100EC000C6DB00200021069007916868EFF31089C7
:100ED00072B601680029FCD0BFF35F8F2868447B9D
:100EE000002C35D0BAD0017B8C42B7D8AE6894497B
:100EF00061180901B046884441460E684F68B61A29
:100F00009F41002FC2DC01D1002EBFD1002100F093
:100F1000BBFDA042A8D143461A685B6806920793BE
:100F200043469B689A464346DB689B465346002BE4
:100F3000A0D0002CA4D02B681B7B9C42A0D8EA68D0
:100F4000631ED35C08931B02184328610020A6E7A8
:100F500000239B469A460020A1E7089B1B022343DF
:100F6000984659461800D04706000F006A68EFF30C
:100F7000108972B6136859424B41D9B2002BF9D18E
:100F8000BFF35F8F002F26DB002F52DD2B69002B74
:100F900053D0434572D100F0D5FA02000B1E73DB2B
:100FA0000100180092197B41984202D804D1914265
:100FB00002D901225242D317002B6BDB002104918E
:100FC0000131039102945946019151460091280044
:100FD000FFF77AFE49E02B69002BD5D043451CD1A1
:100FE000069A079B10001900921BBB41994202D838
:100FF00004D1904202D901225242D317002B12DBB6
:101000000021049101310391029459460191514606
:1010100000912800FFF758FE27E04A4B454A434815
:101020009F2100F045FE3C4B3C4A3D483D2100F0ED
:101030003FFE002F01D1002EA8D12A68002C44D0F9
:10104000537B9C422CD1012100293ED1D37B002B24
:1010500041D1D473002C50D02B681B7B9C424CD8C0
:10106000EA68013C135D0133135500232B616A6864
:10107000BFF35F8F136089F310881DE7314B2D4A52
:101080002A48A22100F014FE234B244A24483D2183
:1010900000F00EFE204B214A21483D2100F008FEC1
:1010A000002C0CD0137B9C4209D8106863001B19DC
:1010B000033BC3189B78002BC6D00121C4E7224B09
:1010C000224A2348692100F0F3FD224B224A20489E
:1010D000F72100F0EDFD002B09D0117B8B4206D8E3
:1010E00010685900CB18033BC3185C70B1E7164B6E
:1010F000164A1748692100F0DBFD0A4B0F4A0B48DE
:10110000402100F0D5FD0BB0F0BCBB46B246A9466D
:10111000A046F0BDE0190020C88200101084001025
:10112000E4820010D881001044840010A4810010D3
:101130002883001028840010408300106884001069
:10114000FFFFFF0F4C8300100C820010B0840010D2
:1011500028820010888300107C84001010B50A4B90
:101160005B68002B04D009480A2100F0D3FA10BDB7
:10117000054C074A20682300102100F0A9FB032139
:101180002000FFF7BDFCEEE7C4040020001C002097
:10119000710B001010B5064B5B68002B01D00448A2
:1011A00010BD044B044A05485C2100F081FDC04697
:1011B000C4040020AC83001050840010A4810010EF
:1011C000F0B5DE4657464E464546E0B58BB0804604
:1011D00016001F00149B9A46159B994616AB1B7868
:1011E0009B461F2302AA9446634400221A7036E0ED
:1011F000002809D042461268127B904204D8424629
:10120000D168421E8A5C4CE0454B464A4648402124
:1012100000F04EFD0798002B79D05B46002B76D06E
:101220004946D04704000D0003000B4300D175E090
:1012300000294ADB00F086F902000B1E59DB010091
:10124000180012196B41984202D804D1914202D978
:1012500001225242D317002B51DB16001F004346D8
:101260005A68EFF3108472B6136859424B41D9B2F1
:101270000791002BF8D1BFF35F8F1F3302AA94466A
:10128000634404930023039302934B460193534614
:10129000009332003B004046FFF716FD031EA7D126
:1012A000020041464968BFF35F8F00250D6084F35B
:1012B0001088002B29D01F2302A98C4663441B7879
:1012C000002BA7D112021043A5E730003900361BCE
:1012D000AF41B94202D804D1B04202D901267642C8
:1012E000F717002FBBDA114B114A12483D2100F0CD
:1012F000DFFC0E4B0E4A0F483D2100F0D9FC0B4B92
:101300000B4A0C483D2100F0D3FC012040420BB0B9
:10131000F0BCBB46B246A946A046F0BD0798F6E72A
:10132000D881001068840010A4810010C8820010C9
:1013300010840010E4820010F8B504004268EFF356
:10134000108572B6136858424341D8B2002BF9D1C8
:10135000BFF35F8FCBB22268567BB3421BD1012013
:10136000002846D0206988422AD0090AC9B2002B39
:101370002CD02068007B834228D8E668581E305C59
:10138000884229D000206368BFF35F8F00221A6073
:1013900085F31088F8BD002B0CD0167BB34209D81A
:1013A00017685E00F618033EBE19B678002ED7D037
:1013B0000120D5E7124B134A1348692100F078FC4D
:1013C000124B134A1348FE2100F072FC124B134AD1
:1013D0001048402100F06CFC1900100000F05EFB8A
:1013E0000028D0D10E4B0A4A06210A48FF3100F0EE
:1013F0005FFC23698B42C6D100232361C3E7C0464B
:101400000C820010B084001028820010D0830010DD
:10141000F8830010A4810010D881001068840010A7
:10142000F483001070B584B006000C00FFF7B2FE24
:10143000002302930193194B009332002300FFF71E
:10144000BFFE051E11DD20BFFFF7A4FE2900FFF738
:1014500073FF134B5B6A9C421BD8114A926AB242DB
:101460001AD29C4213D0012014E00D4B5B6A9C42BF
:1014700009D80B4A926AB24207D29C4201D001209D
:1014800008E0002006E0002004E0012002E0002047
:1014900000E0002004B070BD0120FBE7410B00100C
:1014A0000040054070B5EFF305833F201840103829
:1014B000EFF3108C72B6184B1B68002BFBD0BFF3F8
:1014C0005F8F012319008140144A5163144A127836
:1014D0001400C440234213D0104B5C6A114B8500AA
:1014E000EB589C4205D3104BEB580D4C8A432270AD
:1014F00007E00A4A031D9B0099589950002300E019
:101500000023BFF35F8F044A002111608CF3108821
:10151000002B00D0984770BD280100D00040054046
:10152000401C00200C1C00209C13002010B5010062
:10153000024A034B1800FFF7D5F910BDD484001000
:101540003C1C0020044B5B6A034A906A1900536AF2
:101550009942F9D17047C0460040054070B504007B
:101560000E00EFF3108572B61B4B1B68002BFBD0EF
:10157000BFF35F8F002E1CD0200000F051FD174BF1
:1015800083420BD01900200000F052FD0121200001
:1015900000F036FD0123A340114A1360114BA40053
:1015A000E650BFF35F8F0C4B00221A6085F3108862
:1015B00070BD0C4BA2000021D1500122A2400A496B
:1015C0000B7893430B700549200000F05BFD002170
:1015D000200000F015FDE4E7280100D0A51400105C
:1015E000386005409C130020401C0020F0B5DE460A
:1015F00000B584B00400150001921E000293FFF7AD
:10160000A1FF03958E4202D84ED185424CD9EFF30B
:10161000108B72B6274B1B68002BFBD0BFF35F8F7C
:10162000254A17780125A540EBB23B431370234BA5
:101630005D63221D92000199D150214AA1000298B8
:1016400088501B6A2B4212D11C4B1B6C2B4208D0BA
:101650000020BFF35F8F174B00221A608BF31088B6
:1016600023E0184B184A1948C12100F021FBFFF76D
:1016700069FF8E4214D802D1039B834210D80E4BCF
:101680001B78BB420ED00D4B1D625D631F222240B2
:10169000012393400E4A1360074B1F700120D8E7C7
:1016A0000020D6E70120D4E7012004B080BCBB466F
:1016B000F0BDC046280100D0401C0020004005407D
:1016C0000C1C0020F88400105C8500101C850010A4
:1016D00080E200E0EFF3108C72B60B4B1B68002B1E
:1016E000FBD0BFF35F8F01238340084A1362084990
:1016F0000A789A430A70BFF35F8F034B00221A6087
:101700008CF310887047C046280100D00040054087
:10171000401C0020024B9C466144890001607047D8
:101720004000003470B504000D00FFF737F90100E8
:101730002000FFF7EFFFFF2323716571BFF35F8F79
:1017400070BD10B50021FFF7EDFF10BD10B5FF21F2
:10175000FFF7E8FF10BD0000034B9C466144890081
:101760000160BFF35F8F70474000003410B5040084
:101770000120FFF721F901002000FFF7EDFF10BD68
:1017800010B500291DD0037B99421AD804684B007C
:101790005B18033BE418002919D0002A1DD09142A0
:1017A00021D0002A25D0037B9A4222D8006853001A
:1017B0009B18033BC3189970217800291FD1227010
:1017C00010BD104B104A1148692100F071FA104BFE
:1017D000104A0E48703100F06BFA0F4B0D4A0B485F
:1017E000712100F065FA0D4B0A4A0848722100F099
:1017F0005FFA044B044A0548692100F059FA597010
:101800002270DDE70C82001074870010288200101F
:1018100070820010608700107C82001088820010A7
:1018200070B506000D001400002914D0002A14D051
:10183000436880689847002806D0220029003000BD
:10184000FFF79EFF280007E02A0021003000FFF785
:1018500097FF200000E0100070BD0800FCE70000CA
:1018600010B50023437301338373037BC3730123D8
:10187000027B9A4213D9002B0BD0027B934208D8EB
:1018800001685A00D218033A8A180133DBB2537048
:10189000EEE70C4B0C4A0D48692100F009FA002ACA
:1018A00009D0924207D8016853009B18033BCB181C
:1018B00000225A7010BD034B034A0448692100F00E
:1018C000F7F9C0460C8200107487001028820010BF
:1018D00010B5017342608360FFF7C2FF10BD0000C6
:1018E00070B50400081E00D170BD002931D0237BE3
:1018F00099422ED822684B005B18033BD3185A78C4
:10190000002AF1D02BD0237B9A4228D8216853009B
:101910009B18033BCB185D7800215970002824D018
:10192000237B984221D8216843001B18033BCB1826
:101930000021597001002000FFF772FF0600290006
:101940002000FFF7CDFF020031002000FFF768FF05
:10195000CAE7094B094A0A48692100F0A9F9064B70
:10196000064A0748692100F0A3F9034B034A0448DB
:10197000692100F09DF9C0460C82001074870010A8
:101980002882001070B505000C001600002927D031
:101990002CD0037B994229D80368490009190339DF
:1019A0005B185A78002A27D19A78002A2AD1197808
:1019B000FFF796FF0300002E03D0EA7B002A27D111
:1019C000EC73002B36D1002C47D02B7B9C4244D8A3
:1019D0002A6863001B19033BD31800225A7070BD9C
:1019E000214B224A2248382100F062F9214B224A39
:1019F0002248692100F05CF9214B1C4A1C483A211D
:101A000000F056F91F4B194A19483B2100F050F9D4
:101A1000002A09D0297B8A4206D82E6851008A18EC
:101A2000033AB2185470CBE7124B134A134869219A
:101A300000F03EF9002B0AD02A7B934207D82A688F
:101A400043001B18033BD31800229A70BBE7094BD5
:101A5000094A0A48692100F02BF9064B064A074853
:101A6000692100F025F9C046808600104C870010DF
:101A7000888600100C8200107487001028820010E5
:101A8000C0860010E886001070B504000A00457B8F
:101A90002900FFF777FF6073280070BD70B5040060
:101AA000002966D0437B8B420ED0002911D0037BE6
:101AB00099420ED805684B005B18033BED18AB78D4
:101AC000002B0CD1002055E00121FFF7DDFF0120A4
:101AD00050E0294B294A2A48692100F0E9F8002BF7
:101AE0001FD0027B93421CD800685A00D318033BD6
:101AF000C218C35C8B421AD0002B1BD0227B9342AE
:101B000018D820685A00D318033BC01843788B427A
:101B100016D0002BF0D11B4B1B4A1C48672100F04C
:101B2000C7F8154B154A1648692100F0C1F86B78C3
:101B3000137007E0104B114A1148692100F0B8F802
:101B40006B7843700023AB706B7001222000FFF7AD
:101B500019FF0200617B814205D02000FFF760FE83
:101B60006073012006E00A4B074A08486D2100F027
:101B70009FF8002070BDC0460C82001074870010D2
:101B8000288200100C87001034870010888600100F
:101B90001487001070B5264B264A1A60264B274A38
:101BA0001A60274B9A68254B9343FAD1254C01E0E4
:101BB00008CC9847244B9C42FAD300F031F91E4BD5
:101BC000224A1A601E4B9B68DB43DB01FAD1204B93
:101BD00040229A675A671A67DA661E4C03E02000B3
:101BE000FFF7AFFD08341C4B9C4206D26379002BF3
:101BF000F5D02000FFF7AAFDF4E7184DA968184CAE
:101C0000C022200002F030FDAC60FEF72CFB002863
:101C100000D000BEFEF7B2FE00F096FBFFF79EFA82
:101C2000104C01E008CC98470F4B9C42FAD370BD92
:101C300000E00040BFCDFBFE00F00040FE7F3C0016
:101C400000C00040040E0020140E0020FFFFFF0122
:101C500000F00140F40D0020040E002000ED00E033
:101C600000000020140E0020200E002000BEFDE722
:101C700003000A4A1268002A08D0084A1068C318EC
:101C8000074A9A4206D3054A13607047034A05493A
:101C90001160F2E701204042F7E7C04650150020EE
:101CA00000000420441C002010B5FFF7DFFF0000F7
:101CB00030B583B00D001900002A0DD0084B002A62
:101CC0000CD0084C019200932B000200200002F07F
:101CD00001FE0120FFF7CAFF034BF0E7024AF0E7DD
:101CE00080870010908700108C8700100FB400B51B
:101CF00083B0084802F0BEFD049B002B07D005A965
:101D00000191180002F0C4FD034802F0B3FD012068
:101D1000FFF7ACFFC0870010E4800010F8B5DE4686
:101D200057464E464546E0B506000F0015000A9A94
:101D300093424ED31A0E92461B0298460A9A0023EB
:101D40004046514601F06EFD81467400A419A4007E
:101D50002E4B9C4664446368834200D26060331F0C
:101D6000DBB29B46012B3AD9C0239B01234380223F
:101D700012011A60264BB200D158002905D05869CB
:101D800001F00EFD01300138FDD16D0123685D4089
:101D9000E0222A4080235B0123431A605A46012A2D
:101DA00028D980239B012343802212011A604B46CD
:101DB00063604A4600234046514601F033FD144B10
:101DC000B60098510120F0BCBB46B246A946A046D9
:101DD000F8BD104B104A11482D21FFF769FF012F64
:101DE000C2D1C0239B01234303221A60A368DB07EF
:101DF000FCD5CAE72168794003220A401A60A3682B
:101E00000125BD401D42FAD0CBE7C046008000400E
:101E1000B0140020D087001024880010E487001040
:101E200030B583B00C2000F027FBFEF79DFD0028A5
:101E30000DD0002304E02E4A99002E48885001332B
:101E4000092BF8D92A4B2C4A5A6203B030BD2B4BD0
:101E500000229A6700F07EFB294B01221A60274B73
:101E60005B6C012BFBD1274B03221A60234B9B6B2E
:101E7000012BFBD1022400940533234A012123487E
:101E800000F06EFA00940523214A0121214800F058
:101E900067FA214B0093002202210420FFF73EFF46
:101EA0001E4D00952B00002201210520FFF736FF73
:101EB000104C00942300002200210720FFF72EFF82
:101EC00000942300002200210820FFF727FF0A4B7F
:101ED00000932300002200210920FFF71FFF009537
:101EE0002B00002200210620FFF718FFADE7C046B7
:101EF000B0140020006CDC021BB700000080004022
:101F00003CB0004030B00040002F685900800240D3
:101F100000389C1C00C00240001BB70040597307EA
:101F2000014B8000C0587047B0140020074B9B68DD
:101F3000103080001950BFF35F8FBFF35F8F044BE9
:101F40000021196082F310887047C04600ED00E060
:101F5000240100D010B5091A04394B08090B05D12A
:101F60005B055B0D0448184380B210BD034B044A67
:101F700004488C21FFF79CFE00E0FFFF348800102E
:101F80003C8A00104488001010B5091A04394A0828
:101F9000090B08D14905490D064B0B430380064B3D
:101FA0001343438010BD054B054A06489421FFF7B3
:101FB0007FFEC04600F0FFFF00F8FFFF34880010EE
:101FC000108A00104488001001238340034A1068DF
:101FD0001840431E9841C0B27047C04600E100E07F
:101FE000002904D0034B1860034B18607047034B63
:101FF0001860FBE780E200E000E100E080E100E043
:1020000010B5012383401800FFF7EAFF10BD000060
:1020100001238340014A13607047C04600E200E09C
:10202000024B9B6810308000C058704700ED00E004
:1020300070B504000D00EFF3108672B60C4B1B68F0
:10204000002BFBD0BFF35F8F2000FFF7E9FF094BA8
:10205000984201D0A84205D1320029002000FFF7A4
:1020600065FF70BD044B054A05487021FFF720FE4F
:10207000240100D0CD01001080880010588A001083
:1020800044880010F0B5CE46474680B583B00600C0
:102090000D00EFF3108872B6574B1B68002BFBD076
:1020A000BFF35F8F554B9A6834001034A300D758A4
:1020B000534B9F4207D0AF4200D19BE00197514B59
:1020C000FB1A2F2B09D9424639003000FFF72EFFAB
:1020D00003B0C0BCB946B046F0BD3000FFF774FF96
:1020E000814600213000FFF78BFFBFF35F8FFEF7C3
:1020F000BAF8002801D084421AD10123019C9C43E4
:10210000404B2200D21A5241484B53431B0D5BB245
:102110009C460021A368AB4212D00622A256002A98
:102120000DDB53009B189B00364A2100D418F1E7C1
:10213000354B364A20213648FF31FFF7B9FD2100E3
:10214000AB4250D106256557002D37DB2D4B6A0079
:10215000521992009B189A68A260DA79E2719B7911
:102160005BB2A371002B10DABD200002A080254BCA
:102170006A00521992009B18264A117899711570BD
:1021800049463000FFF73CFF9DE7201D6B005B19BF
:102190009B001C4A9B18191D9B88DA0A1C2A07D130
:1021A0005B055B1502335B00C918FFF7D3FEDDE763
:1021B000194B1A4A16489A21FFF77AFD00280DD1CB
:1021C000002909D0FF238B71154B8B80114B1A7896
:1021D000A27162461A70D3E7094FF7E71149201D33
:1021E000FFF7D2FECCE7104B084AAA210848490065
:1021F000FFF75EFD024F66E7240100D000ED00E02E
:10220000CD010010EC04002094890010288A0010F1
:10221000448800103E1C00207C890010488A001071
:1022200000BDFFFF26050020B8890010AAAA000003
:1022300010B5032304009C43064A94466444226874
:102240001840C000FC3383409A43130081400B4385
:10225000236010BD00E400E070B5040001260643D1
:102260002D4BF31A2F2B28D8FDF7FDFF00282BD07C
:10227000EFF3108C72B6294B1B68002BFBD0BFF319
:102280005F8F254D23005B1B5B412E4D5D432D0D64
:102290006DB2234B9B6880001B58B3421BD00021BA
:1022A000032932D81C4B4A00521892009B189B7984
:1022B0005BB2AB421FD00131F2E71A4B1A4A7221CE
:1022C0001A48FF31FFF7F4FC194B174ABA21174897
:1022D0004900FFF7EDFC124B9B68164A1A50164B4B
:1022E0001A78A2711D70BFF35F8F0C4B00221A6029
:1022F0008CF3108870BD084B4A00501880001818E5
:10230000FF2686710D4A8280E9E70D4B064A862139
:102310000648FF31FFF7CCFCEC040020240100D07C
:1023200000ED00E0C0890010F4890010448800101E
:10233000E8890010CD0100103E1C002000BDFFFF09
:102340000C870010AAAA000010B5002404E0802128
:102350002000FFF76DFF01341F2CF8D910BD0000DD
:10236000F0B5CE4600B504000E0091461F000C20CB
:1023700001F016FA050043011B1A9901C91AC90098
:1023800009188901484601F00BFA0200103A982317
:102390005B009A4233D87B1E062B36D8069B013B46
:1023A000062B32D8069B9F4235D34B461B09AB42C6
:1023B00037D33F04069B1D032F432368002B36DBD6
:1023C000234B9C4241D080235B01224A1360224A66
:1023D0001360224A926819009143FAD12660A060E6
:1023E000221DC0239B01134321221A602268002A68
:1023F000FCDAE76008221A6080BCB946F0BD184BD1
:10240000184A19481621FFF753FC184B154A16486D
:102410001921FFF74DFC164B124A13481F21FFF7F5
:1024200047FC144B0F4A10482221FFF741FC226859
:102430003F231340B342C3D1A3681B051B0D834246
:10244000BED1E368002FBBD1D6E780239B01BCE758
:1024500000C0024000E0004000F0004000C000402A
:10246000748A00104C8B0010908A0010CC8A0010E7
:10247000188B0010308B001080239B000343014A0F
:10248000D362704700800540024B1A68024B5A60C5
:102490007047C046541900200080054010B5030065
:1024A000144A8020C0051060134A144810600029A7
:1024B0001BD0134AE021C9041160002B00D1323334
:1024C0005801C01A8000C01800010E4B186080230C
:1024D0005B04984202D30B4B0B4A1A60FFF7D4FF00
:1024E000074B8022D2051A6010BD024AE021C904C0
:1024F0001160E2E700B0054008200140FCFF010048
:1025000000A0054054190020FFFFFF0010B5030094
:1025100010000C4A8024E4051460002B0DD0012229
:102520001343094A094CD461094C5C40146251625E
:1025300093620021FFF7B2FF10BD034B0022DA6166
:10254000F7E7C04600B0054000800540D3C007B0A3
:102550002D3FF84F064BAA2212011A602F22DA6093
:10256000044B054A1A60024B5B68002BFBDA70478C
:10257000004002400060024000B0FA00704710B511
:10258000002802D00B684968984710BD0100002060
:1025900007E083001B185B00501C08601078C0180F
:1025A00030380A681378303BDBB2092BF1D9704719
:1025B000F0B5DE4657464E464546E0B583B09346F5
:1025C0001F000C9B9A460D9C0E9B99460F9B9B07E8
:1025D00003D0B8460F00060022E00192A3468846C9
:1025E0004E46B9460700B44207D2551C4B464146F9
:1025F0002020B84701342A00F5E73D004F465C46ED
:10260000019B9B46B1464646B84637002E0007E080
:10261000013C551C5346185D43463900B0472A001B
:10262000002CF5D135003E0047460F9B9B0707D491
:10263000100003B0F0BCBB46B246A946A046F0BDB0
:10264000B0464E46B9462F005D46531BB342EFD20B
:10265000541C4B4641462020B8472200F5E7F0B510
:10266000CE46474680B585B0944698460C9D0D9C55
:102670000EAB1B789946109A119B129EB7071CD47B
:10268000002B0CD0F7070AD54F46002F02D10C378C
:10269000374204D0013B02E030272F5501349442E9
:1026A00001D21F2CF8D9F70707D59C4205D21F2C61
:1026B00003D830272F550134F5E7F70615D57705F0
:1026C00005D4002C03D0944224D09C4222D00F9AEF
:1026D000102A2BD00F9A102A30D00F9A022A35D008
:1026E0001F2C02D830222A5501341F2C05D84A4607
:1026F000002A31D02D222A550134039602930194E9
:10270000009543466246FFF753FF05B0C0BCB9468B
:10271000B046F0BD621E012C06D00F9F102F01D0D5
:102720001400D4E7023CD2E71400D0E7B206D1D4BB
:102730001F2CCFD878222A550134D1E7B206CCD548
:102740001F2CCAD858222A550134C9E71F2CC7D8D4
:1027500060322A550134C3E7720703D52B222A556C
:102760000134CAE73207C8D520222A550134C4E70C
:10277000F0B5DE4657464E464546E0B593B0814635
:102780008A46089209931CAB10CB1B789B461E9D72
:10279000219B9846002C03D1102342469A43904631
:1027A0008023DB0046461E4042461A4212D0002CCF
:1027B00022D000260EE03031CBB2771C0AAA935506
:1027C0002900200000F0ECFFAC4216D31F2F14D8D4
:1027D0003E0004002900200000F0E2FFC9B20929F0
:1027E000E9D943469B0605D541235B18DBB20A3B7A
:1027F000DBB2E2E76123F8E7270043460693209B1C
:1028000005931F9B049303955B46029301970AABC4
:102810000093099B089A51464846FFF720FF13B0E2
:10282000F0BCBB46B246A946A046F0BDF0B5DE46B8
:1028300057464E464546E0B595B0089009910A9234
:102840000B931E9E1F9C20AB1B789B46229B994698
:10285000239D269B9A463300234303D110335246CF
:102860009A4392468023DB0057461F4052461A4245
:1028700019D0330023432DD0002714E03032D3B2D7
:102880007A1C90460CAAD3554A462B0030002100F2
:1028900000F0C8FFA5421FD819D043461F2B1BD8F4
:1028A000474606000C004A462B003000210000F08D
:1028B000B9FFD2B2092AE1D953469B0605D5412377
:1028C0009B18DBB20A3BDBB2DAE76123F8E7B145DC
:1028D000E3D901E00023984653460693259B0593D0
:1028E000249B04934B4603935B4602934346019318
:1028F0000CAB00930B9B0A9A09990898FFF7AFFE5F
:1029000015B0F0BCBB46B246A946A046F0BD0000DB
:10291000F0B5DE4657464E464546E0B591B0834693
:102920008A460C9298461A9C08941B9D0995220091
:102930002B002000290001F002FA002800D0E5E079
:1029400001225242D74B2000290001F0F3F9002860
:1029500000D0DBE001225242D34B2000290001F0DD
:10296000D3F9002800D0D1E000220023089E3000D7
:10297000099D290001F0C8F9002800D0DDE0089A7F
:10298000099B069207938023DB001E9A1A400D9242
:102990001E9A1A4201D106231C9306980799040037
:1029A0000D000A000600024300D1D1E0080D4005E9
:1029B000400DBE4CA44660440A03120BBC4B1343AB
:1029C0001F0001F0CFF9BB4ABB4B01F05AF9BB4ADB
:1029D000BB4B01F02FF904000D000022B94B300071
:1029E000390001F01EF9B84AB84B01F04AF902006B
:1029F0000B002000290001F01DF901F0CBF9814600
:102A000001F0B0F904000D00B14AB24B01F039F900
:102A10000022B14B01F00EF901F0BCF90600AF4AFB
:102A2000AF4B2000290001F02CF904000D0030000C
:102A300001F098F9AB4AAC4B01F023F902000B000E
:102A40002000290001F0EDF804000D0002000B0049
:102A500001F017F90A900B91A44BF31800261F05FB
:102A600022002B002000290001F0E4F80E900F91C5
:102A700022002B0000208021C90501F0D2F80400BB
:102A80000D0000229A4B0A980B9901F0DCF8002205
:102A9000984B01F0CFF802000B000A980B9901F057
:102AA000D2F80022944B01F0C5F802000B000A98FE
:102AB0000B9901F0C8F802000B002000290001F07A
:102AC000B9F802000B000E980F9901F0BCF8002233
:102AD000774B01F0AFF832003B0001F0D2F806006E
:102AE0000F0004000D00069A079B01F023F900284F
:102AF00030D001235B429C46E14400227D4B3000F4
:102B0000390001F0A0F804000D0023E01E9B04939F
:102B10001D9B03931C9B0293089A099B00920193AF
:102B200043460C9A5146584600F0FCF811B0F0BCF0
:102B3000BB46B246A946A046F0BD0023002406933A
:102B40000794069680231B069C46654407951AE762
:102B5000002399464B466333C62B1ED804261E9B82
:102B60001B0526D52B0023430FD0644A644B0698DF
:102B7000079901F0D7F8002879D00022614B069818
:102B8000079901F0C1F8002871D01C9B4B4506DD68
:102B90004A469B1A013B1C9303E00526DFE700230E
:102BA0001C938023DB001E9A1A431E9200260023EA
:102BB00099461D9B9E4264D29F1B02231E9A1A4077
:102BC0000A921E9A134202D0002E00D000274B46D4
:102BD000002B07D022002B000698079901F033F84C
:102BE00006900791002200230898099901F08CF8BB
:102BF000002848D1444B1E9A1340049303971C9B12
:102C00000293069B079C0093019443460C9A5146FD
:102C1000584600F087F8002E00D187E71E9B9B06E0
:102C20003DD54525441C4346020051462800D8475F
:102C30004A46D317D2185A4005230593013E0496FD
:102C4000002303930A3302934B46DB0F0193009258
:102C50004346220051465846FFF78AFD0A9B002B47
:102C600000D163E702005F460C9E1D9D54E01C9B53
:102C7000002B9ED00D9B002B9BD01C9B013B1C93DB
:102C800097E7002799E7069C079D220029008020EE
:102C90000006844661440B0006920793AAE7652567
:102CA000C0E7C046FFFFEF7FFFFFEFFF01FCFFFF24
:102CB0000000F03FFB799F501344D33FB3C8608BB3
:102CC000288AC63F0000F83F61436F63A787D23F61
:102CD00071A379094F930A400000E03F1655B5BB38
:102CE000B16B0240EF39FAFE422EE63FFF030000CF
:102CF00000002C4000002440000018402D431CEB35
:102D0000E2361A3F80842E41FFF7FFFF541C4346F2
:102D100051462020B8472200931BAB42F6D3100047
:102D200004E7C046F0B5DE4657464E464546E0B598
:102D300095B00690079193469946209F1E9A1F9B37
:102D40001000190000F0FBFF002831D1012252428F
:102D5000BF4B1E981F9900F0D7FF002837D10122E2
:102D60005242BC4B1E981F9900F0E4FF00283DD151
:102D70000022B94B1E981F9900F0DCFF002850D1AB
:102D80000022B64B1E981F9900F0BEFF002848D1C4
:102D9000002200231E981F9900F0B6FF002850D192
:102DA00000239846229B5B0500D4B6E0002458E03F
:102DB000229B0393219B029303230193A84B00932F
:102DC0004B465A4607990698FFF7F2FB0EE1229B05
:102DD0000393219B029304230193A24B00934B4640
:102DE0005A4607990698FFF7E3FBFFE00423229A6F
:102DF0001A4022990B4210D09B4B002A0FD004227C
:102E00002299039121990291019200934B465A46CF
:102E100007990698FFF7CCFBE8E0944BEDE7032217
:102E2000EEE7229B0493219B039302971E9B1F9C1A
:102E3000009301944B465A4607990698FFF768FDA0
:102E4000D4E01E9A1F9B0020002100F0EAFE1E9095
:102E50001F9101239846A5E70CAB30221A55013F7C
:102E600001341F2C01D8092FF6D81E981F9900F0A5
:102E700091FF050000F076FF02000B001E981F99DD
:102E800000F0CFFE7A4BFA009B181A685B680A9232
:102E90000B9300F0F6FE0890099100F09FFF0600EA
:102EA00000F05CFF02000B000898099900F0B9FEE1
:102EB0000890099100226F4B00F03CFF00282ED0B3
:102EC0000136300000F04AFF02000B000A980B990F
:102ED00000F020FF002801D001350026002F2CD162
:102EE000280000F03FFF02000B001E981F9900F021
:102EF00098FE06000F0000225E4B00F005FF002840
:102F000046D100225B4B3000390000F013FF00284F
:102F10003ED1EB073CD501353AE0062746E70022D3
:102F2000544B0898099900F0EFFE0028D6D1002EE6
:102F300001D0F307D2D50136D0E7AA461F2C11D80D
:102F4000013F0A21300000F02BFC651C30310CAB36
:102F500019550A21300000F023FC092E0ED9060075
:102F60002C00EBE755461F2C0CD87B1E002F09D0F8
:102F70000CAA302111551F000134F4E72B005546EF
:102F80001C00F0E71F2C03D80CAB2E221A5501347D
:102F90001F2C10D80A21280000F0DAFB661C303103
:102FA0000CAB19550A21280000F0D2FB051E01D0F8
:102FB0003400EDE734000323229A1340012B1CD088
:102FC0001F2C06D84346002B32D00CAB2D221A55AD
:102FD0000134229B0393219B029301940CAB009339
:102FE0004B465A4607990698FFF7E2FA15B0F0BC2F
:102FF000BB46B246A946A046F0BD219B002B13D08C
:103000004346002B02D10C3313420FD0219B013BCE
:103010002193190003E00CAB30221A5501348C4285
:10302000CED21F2CF7D9CBE72199F8E72199F6E703
:10303000229B5B0704D50CAB2B221A550134C8E741
:10304000229B1B07C5D50CAB20221A550134C0E7C3
:10305000FFFFEFFFFFFFEF7F65CDCD4165CDCDC118
:10306000648B0010688B0010588B0010608B001070
:10307000108D00100000E03FF0B5DE4657464E468A
:103080004546E0B593B082468B46904611930029A1
:1030900000D100E300275446119B1878002800D186
:1030A000FCE2252809D07D1C43463A005946A0473A
:1030B000119B013311932F00EEE70133119300258B
:1030C000119A11780B00203BD8B2102803D8830046
:1030D000C248C3589F460B00303BDBB2092B2CD9AA
:1030E0002A292FD000230A93119B1A782E2A39D02F
:1030F00000239946119A1378683BD9B2122976D8E1
:103100008B00B749CB589F4601231D4301321192D2
:10311000D6E702231D4301321192D1E704231D4358
:1031200001321192CCE708231D4301321192C7E707
:1031300010231D4301321192C2E711A8FFF726FAAE
:103140000A90D1E71C9B1A1D1C921B68002B04DB04
:103150000A93119B01331193C6E7022215435B4288
:103160000A93F6E78022D20015435A1C11925A782E
:103170001300303BDBB2092B04D92A2A07D00023E5
:103180009946B7E711A8FFF701FA8146B2E71C9B01
:103190001A1D1C921B68002B04DB9946119B0133FE
:1031A0001193A7E70023F8E780235B002B43511C12
:1031B000119152786C2A01D01D0018E0C0239B00A9
:1031C0001D430131119112E080232B43511C1191B9
:1031D0005278682A01D01D0009E0C0231D43013147
:1031E000119104E080235B001D4301321192119B79
:1031F0001878672816D8252826D30300253BDAB28D
:10320000422A21D89300774AD3589F4680239B00B7
:103210001D4301321192EAE780235B001D43013216
:103220001192E4E778280FD869280DD30200693A93
:10323000D2B2012393406C4A13420FD11A0600D533
:1032400003E25B0500D594E17D1C43463A005946F4
:10325000A047119B013311932F001DE7782809D057
:10326000622838D06F2838D0582838D010239D4392
:103270000A2600E01026582833D0692803D0642895
:1032800001D00C2295436A0501D501229543692896
:103290002AD0642828D0AA0500D5A7E0EA0500D5E1
:1032A000C0E06A0600D4D2E01C9A111D1C9111687E
:1032B000FF220A4005950A9B04934B46039302960E
:1032C00000230193009243463A0059462000FFF73D
:1032D0004FFA070027E00226CDE70826CBE71026A5
:1032E000C9E720221543C8E7AA0520D4EA0550D42F
:1032F0006A0666D51C9A111D1C911168FF220A40AE
:10330000D0171118414005950A9B04934B4603932F
:103310000296D20F0192009143463A00594620008E
:10332000FFF726FA0700119B01331193B4E61C9AAC
:10333000073207218A43110008311C911168536834
:103340009C46DB170C930D930C9A0D9B1000484084
:103350000E90624653400F930E980F990C9A0D9B56
:10336000801A99410E900F9108950A9B07934B463E
:1033700006930496002305936346DA0F02920090A9
:10338000019143463A0059462000FFF74FFA0700E3
:10339000C9E71C9A111D1C911268D01711184140E1
:1033A00005950A9B04934B4603930296D20F019214
:1033B000009143463A0059462000FFF7D9F907002B
:1033C000B1E72A0605D51C9A111D1C910023D25E77
:1033D00096E71C9A111D1C91126891E7708B0010E2
:1033E000B48B0010008C0010419000001C9A073232
:1033F00007218A43110008311C9108950A9B079305
:103400004B46069304960023059302935368126873
:103410000092019343463A0059462000FFF706FA0E
:10342000070080E71C9A111D1C9105950A9B0493C7
:103430004B4603930296002301931368009343467F
:103440003A0059462000FFF793F907006BE72A0678
:1034500006D51C9A111D1C9112681204120C29E742
:103460001C9A111D1C91126824E746281AD01C9B37
:103470000733072293431A0008321C9204950A9AD4
:1034800003924A4602921A685B680092019343468F
:103490003A0059462000FFF745FC0700119B013315
:1034A0001193F9E520231D43E1E7672801D0472860
:1034B00002D180231B011D43452801D0472801D19B
:1034C00020231D431C9B0733072293431A00083215
:1034D0001C9204950A9A03924A4602921A685B6803
:1034E0000092019343463A0059462000FFF710FA34
:1034F0000700119B01331193CEE502231A002A40E5
:1035000092462B421FD001251C9B1A1D1C927A1C2F
:103510009146187843463A005946A0475346002B37
:1035200016D1119B013311934F46B5E5561C434606
:1035300059462020B8472B0032005D1C9C42F5D82C
:103540003C001700E0E701233A0027000A9CF4E75B
:103550004A46A1460A9C06E0571C4346594620208D
:10356000C84735003A006E1CAC42F5D84C4691462F
:10357000D7E71C9B1A1D1C921E684B46002B00D1DE
:10358000013B310001E0013113000A78002A02D02A
:103590005A1E002BF7D1891B10918023DB002A00D3
:1035A0001A4092461D4203D0494501D94B4610931B
:1035B00002231A002A400B922B4205D03A005746AC
:1035C00023004C46994620E03A00109B5F46B346E4
:1035D000260006E0541C434639002020B0472B004B
:1035E00022005D1C0A999942F4D834005E46BB461D
:1035F0001095574623004C46994606E01C000136BC
:10360000551C43465946C8472A003078002804D044
:10361000002FF4D0631E002CF0D117004C460B9BFA
:10362000002B03D1119B0133119335E50A9F109BA9
:1036300006E0561C434659462020A0472B00320086
:103640005D1C9F42F5D81700ECE721232B431C9A01
:10365000111D1C9112680593082304934B46039394
:103660001023029300230193009243463A005946E7
:103670002000FFF77DF80700119B013311930BE544
:103680007D1C43463A0059462520A047119B013333
:1036900011932F0000E50B4B9A46FBE4A2464745E9
:1036A00002D343465A1E00E03A00434659460020E2
:1036B000D047380013B0F0BCBB46B246A946A0467E
:1036C000F0BDC0467D25001000B585B00290039185
:1036D00001210448009313004A4202A9FFF7CCFCE1
:1036E00005B000BD7F25001001480421014B18479B
:1036F000400500201937001010B5010018231B8861
:1037000014221088984710BD10B5010018231B889B
:1037100016221088984710BDF0B5C64600B50700C0
:103720000E0000250123984600E00135B5420AD27B
:10373000AC003C192068FFF7DFFF20600028F4D1BF
:1037400000239846F1E7404680BCB846F0BD000033
:10375000124A936F9B0815D29066D166002905D056
:10376000FFE7FFE7FFE7516F106F704704B5802157
:103770000906C2175140002800D0C84304F034FCA9
:10378000002104BDF0B5146E556E576F166FFFF72C
:10379000E3FF1466556657671667F0BD000000D05A
:1037A000114A936F9B0813D210665166002905D009
:1037B000FFE7FFE7FFE7516F106F704704B5002880
:1037C00001D00020C04304F00FFC002104BDC0461E
:1037D000F0B5146E556E576F166FFFF7E5FF146660
:1037E000556657671667F0BD000000D094464E4AF4
:1037F000926F9208624601D230E0C046F0B54A4E60
:10380000B56F6D08FCD3346E756E776F366F00F050
:1038100025F89446444A146655665767166762460B
:10382000F0BDC0469446404A926F9208624601D26B
:1038300058E0C046F0B53C4EB56F6D08FCD3346E11
:10384000756E776F366F00F04DF89446364A146601
:103850005566576716676246F0BDC046002B24DBED
:1038600011D000293EDA00B5C943404200D10131F0
:1038700000F038F8C943404200D10131DB435242E5
:1038800000D1013300BD002AEBD1002801D100296D
:1038900005D00020C90FC90701D1C043410800B5B8
:1038A00004F09AFB0022002300BD00B500290ADBCA
:1038B000DB43524200D1013300F014F8C9434042C7
:1038C00000D1013100BDC943404200D10131DB4389
:1038D000524200D1013300F005F8DB43524200D1DF
:1038E000013300BD002923D1002B18D1002A0CD0B0
:1038F000BC460D4F38667A6600210023FFE7FFE7DC
:10390000FFE77A6F386F67467047002801D0074895
:10391000010000B504F060FB0022002300BD02009E
:103920000B00002000217047000000D0FFFFFFFFC8
:10393000002B00D0BDE0130C26D1002AE7D080B4C4
:10394000104F39667A66FFE7FFE730B4040C7B6FEF
:10395000396F1B0423433B66FFE7FFE7FFE7C046E1
:1039600084B27B6F3D6F1B0423433B66FFE7FFE799
:10397000C04600232C042D0C7A6F386F0019694162
:10398000B0BC7047000000D0F0B594460025140E7E
:1039900001D112020835140F01D112010435940F20
:1039A00001D192000235D40F01D152000135D40B60
:1039B0000134254F7C66254C3C660E0C93B2FFE724
:1039C000FFE7FFE73C6F6643360C7703BE46734361
:1039D000DF0B5B04C01AB941130C7343DB18C91A1F
:1039E000CE086643360CB64493B273431F0F1B01D7
:1039F000C01AB941130C73431F0B1B05C01AB94100
:103A0000860D8F023E436643360C092D24DB520A95
:103A10007243801A7703460A6643360C16235B1BF3
:103A2000DE40DF40BF1964466643821B70460435A2
:103A300006330100D940A840C01900D30131A24289
:103A400006D20023F0BD0000000000D0FFFFFFFF02
:103A5000121B0130F3D3F1E709277F1BFE406446B8
:103A6000A2B27243801A00D20139220C7243130CA5
:103A70001204821A99410B00704604351337010075
:103A8000F940A840801900D30131002B02D1A24295
:103A90000AD2F0BD013000D30131121BFAD2013B32
:103AA000F8D1A24200D2F0BD013000D30131121B87
:103AB000F7E7F0B51C0C00D080E00CB400251C0A20
:103AC00004D11B02160E3343120208351C0B04D11D
:103AD0001B01160F3343120104359C0B04D19B00CC
:103AE000960F334392000235DC0B02D192185B41F2
:103AF00001351C00971864410134464F7C66464CE2
:103B00003C660E0CFFE7FFE7FFE7C0463C6F6643ED
:103B1000360C7703BE4697B27743C01B00D20139FB
:103B2000C01B00D201399FB27743C91BC91B170CB8
:103B300077437E04FF0B801BB941CE086643360CE9
:103B40000C2D33DBB644120B1F053A431B0B97B207
:103B50007743C01B00D201399FB27743C91B170CB2
:103B600077433E043F0C801BB941860D8F023E43D4
:103B7000664329277F1BFE400C3D7746AF40BF19A7
:103B800030BCA2B2ABB272437343801A9941220C8B
:103B90007243130C1204801A994102000B00013782
:103BA000001BA941F9D2781E0021F0BD0C277F1B14
:103BB000FE4077467F0BAF40FF19E0E700245D1C15
:103BC00007D0144F7D663966FFE7FFE7FFE7FFE7A1
:103BD0003C6F95B29EB265436643401BB141150CE4
:103BE0001E0C6543664336042F0C3E432D04401BD8
:103BF000B141994204D202000B0020000021F0BD27
:103C000001D19042F7D3801A994101349942F2D3FD
:103C1000F6E70000000000D0FFFFFFFF48404140F2
:103C2000484018B41B4B5B68FC46019308BD04DF99
:103C3000E73E001018B4174B1B68FC46019308BD03
:103C400000DFF13E00109446134A926F920809D2A9
:103C5000624618B40F4BDB68FC46019308BD0CDFCD
:103C6000A94100100C4AF0B5146E556E576F166FCF
:103C70006246FFF7EEFF084A1466556657671667F7
:103C8000F0BD18B4034B9B68FC46019308BD08DFE8
:103C90004D400010F8190020000000D0FFB5504042
:103CA0004240504059404B40594000E0FFB5154F4D
:103CB0004C00640D03D0BC4204D10C0314D8002086
:103CC000090D09055C00640D03D0BC4204D11C033E
:103CD0000AD800221B0D1B0501264B4009D44B407E
:103CE00003D58B4200D18242FFBD9942FCD1904264
:103CF000FFBD0B43DB1803431343F5D0C9434918F9
:103D0000FFBD0000FF07000000B5FFF7CFFF8041B7
:103D100000BDC04600B5FFF7C9FF01D9002000BDB6
:103D2000012000BD00B5FFF7B9FF01D9002000BD9B
:103D3000012000BD00B5FFF7B1FF804100BD0120AB
:103D400040054A00121804D85A00121801D8002061
:103D500070470120704700207047000000210028B4
:103D600005D17047C1174840401AFAD0C90713B5AA
:103D7000064B1B6898470CBC441CA2401005120B54
:103D80000349091B09051943114310BDFC1A002002
:103D90001F04000010B54C00620D8023D218DB0018
:103DA000D21A5B057E2A10DD9E3A13DACC1709037E
:103DB000490819435242D140640001341532202A87
:103DC00005DAD0400843604310BD002010BD08460E
:103DD000604310BDC80FC018013810BD18B4044BA3
:103DE0005B6AFC46019308BD24DFD5430010000048
:103DF000F819002070B513231C78012C0FD0012C6A
:103E00000FDC022C02DC1D4B1D4A936470BD1B4964
:103E10001B4A9800815001331F2BF8D9EFE700238C
:103E2000FAE71848FFF770FC05001748FFF76CFC2D
:103E3000023803789B007F2B19DD1148802229006E
:103E400000F012FC022CDCD1104B1A88B5231B02A7
:103E50009A4209D10E4B1A880E4B9A4204D10E4B4E
:103E60001A880E4B9A42CCD00020FDF73FFF0C4B36
:103E70000C4A0D483021FDF71BFFC046AD3E001037
:103E8000F819002053440000534600005438000045
:103E9000D8380000494600009C3800005946000010
:103EA000608D0010088E0010C08D001007B56046B0
:103EB000002800D100BE01880A0A0230DF2AFAD1A8
:103EC000C9B2820804D3028840880004104300E08D
:103ED0000068024A5050039007BD0000F819002006
:103EE0000FB403BC0CBCF0B50124E407634000E050
:103EF000F0B50C0DCF0F661E3605891B640503D384
:103F0000C943404200D30131640D03D0661CF60A58
:103F100007D0E41B00207F00791C89078912803CB0
:103F200024031D0DDF0F6E1E36059B1B6D0503D38D
:103F3000DB43524200D301336D0D03D06E1CF60AF1
:103F400007D0ED1B00227F007B1C9B079B12803D4E
:103F50002D032F1B661B58D4A446202E46DA20378B
:103F60001400BC401D00BD40F24033412A4380187C
:103F70005941CB0F05D0C943C04300226442504190
:103F8000514162464D0D28D10D0D07D100281FD09B
:103F9000241940414941013A0D0DF9D0640006D37E
:103FA000013000D30131002C01D140084000013A1A
:103FB0000BD4941CE40A04D112051144DB07194404
:103FC000F0BDD907204B194300E0D9070020F0BD10
:103FD0000029DDD1002CDBD1F0BD0132C60740083D
:103FE000CD0728434908002EE1D0D9E73C2E29DA35
:103FF000203E40371400BC4000D00124F24014435E
:104000001A00BB401C43D317ACE7AC46202F08DA9C
:1040100020360400B4400D00B540F8403941284333
:10402000A5E73C2F0CDA203F40360400B44000D016
:104030000124F84004430800B1400C43C117EAE7EB
:1040400010001900002494E70000F07FF0B50C0D7B
:10405000661E3605891BE60A6405640D02D0651CE0
:10406000ED0A04D0002001210905803C2403A44668
:104070001C0D671E3F05DB1BE70A6405640D02D0BB
:10408000651CED0A04D0002201231B05803C24039B
:104090007740644497B484B296B27443070C7E436D
:1040A000150C6F4380B26843361802D30120000418
:1040B0003F183004350C00197D41844688B29AB20D
:1040C00050430C0C62431F0C7C438EB27E4392190A
:1040D00002D301263604A4191604170C36186741BA
:1040E00001BC81B29AB25143040C62431B0C5C4385
:1040F00080B25843121802D301200004241810047F
:10410000130C401863412D185E410020474106BC46
:1041100088B293B258430C0C6343120C544389B2D7
:1041200051435B1802D301210904641819041A0CC5
:10413000091862416D1856410020474118BCF90228
:10414000720D1143F0026A0D1043ED020A0D03D106
:104150006D1940414941013B124E9B1B7600B34211
:104160000ED26D0007D301300026714166463543FB
:1041700001D1400840001B05C918E4072144F0BDE7
:104180000BDA013306D1013004D101314F0D01D0DA
:104190004908F2E7E1070020F0BD013631050020B3
:1041A000EBE70000FF030000F0B51C0D671E3F05A4
:1041B000DB1BE70A6405640D02D0661CF60A04D016
:1041C000002201231B05803C2403D0252D06002658
:1041D000F6432E661E096E66CE0FF619B4464900E8
:1041E0004F0D02D07E1CF60A03D000200021403F74
:1041F0003F033E1BB600B444013F7F05C91B49087D
:104200002E6F013676089C02950D25437543ED13FC
:104210007543AD1301356D10F603761B0CB4CC025B
:10422000450D2C43A2B2B3B25A43270C7B43350C45
:104230006F43A4B26C431B1902D3012424043F1919
:104240001C041D0CA4187D4124196D41009A91B2E3
:10425000ACB26143170C7C432B0C5F4392B25A43C0
:10426000A41802D301221204BF182204230C5218EE
:104270007B41019C6C431B19520ED9010A43440136
:10428000A01A81B2B2B2514303145A43360C73439D
:1042900087B27743D617D21900277E4136049B197F
:1042A0001704160C7F185E417316ED18F3010026F3
:1042B00080337541A90F06D16400690AE8055B0ADD
:1042C000184309D22FE00422944480337541A90A8F
:1042D000A8059B0A184326D3404149412404009A6B
:1042E000019B0D005543641B4343E41A95B286B20B
:1042F0007543170C7E43030C5F4392B25A43B618C2
:1043000002D301221204BF183204330C52197B412C
:1043100052429C41002C02D40022013051414008FD
:10432000CA071043490802B06246D7079210084BEB
:10433000D218084B9A4203D212058918C919F0BD48
:104340000020002A01DC3900F0BD01331905F5E732
:10435000FD030000FE070000624618CA94460029CB
:104360001ADAC01861415B463B415C46B440524694
:10437000FA40224344464D4662416B41904699467D
:104380002B46B3403D41FC401C4352465B46A24194
:10439000AB4192469B467047C01AA1414B463B41F8
:1043A0004C46B4404246FA40224354465D46624180
:1043B0006B4192469B462B46B3403D41FC401C431B
:1043C00042464B46A241AB41904699467047002079
:1043D00000217047002200B5203200F004F80800E8
:1043E00000BD000000220B15F1D410B5944600F07A
:1043F0002FF81414013400DA0021CB17134C204796
:104400006244343A0CD40C2A07DA040091409040FC
:1044100052422032D440214310BDD843D94310BD6D
:10442000203207D40C469440524220321141D040F1
:10443000204310BD0800C917203203D45242203255
:10444000104110BD1800190010BD000001440010FB
:104450000A0DCC0F531E1B05C91A520503D3C943BD
:10446000404200D30131520D03D0531CDB0A07D068
:10447000121B00206400611C89078912803A120314
:10448000014BD21A70470000FF0300005143434321
:10449000C9188C46110C83B24B4310B4040C614311
:1044A00092B280B2504362431C041B0C001910BC32
:1044B00059411304120CC018514161447047000067
:1044C00070B513231E782A48FFF71EF90500012E48
:1044D00011D0012E09DDAB1E1B789B007F2B40DD28
:1044E00024488022290000F0BFF82348FFF704F990
:1044F000224B186070BD1F485422290000F0B4F808
:104500001F4B1A881F4B9A421CD1A7239B011A8864
:104510001D4B9A4216D11D4B1A881D4B9A4211D140
:104520001C4B1A8894239B019A420BD11A4B1A8870
:104530001A4B9A4206D11A4B1A681A4B9A4201D169
:10454000152307E01848FDF7D1FB184C094A9900DC
:104550008C5001331F2BF8D9144B064A1362D361D8
:10456000B7E7134B134A14484221FDF7A1FBC0469D
:1045700053460000001B00204C330000FC1A0020B2
:10458000EE290000C40F0000C20D0000962B0000B1
:10459000C0B50000182B0000CC2A000010B50000A8
:1045A000FC2C000051ED87648C870010BD45001085
:1045B0001C8E0010948E0010508E001007B56046BF
:1045C000002800D100BE01880A0A0230DF2AFAD191
:1045D000C9B2820804D3028840880004104300E076
:1045E0000068024A5050039007BD0000001B0020E5
:1045F00070B504000A4E300003F00EFD200003F0F9
:1046000005F80500300003F0DFFC002D05D02C1963
:10461000044B9C4201D8280070BD0348FDF766FB9F
:10462000F40D002000000420A88E001070B50400D6
:10463000054D280003F0F0FC200002F0F1FF2800F7
:1046400003F0C2FC70BDC046F40D002001480421F7
:10465000014B18475005002019370010014B1B680B
:104660001847000050050020014B5B681847000008
:1046700050050020F8B507000D001600437C002B04
:1046800002D0002400200CE00368110028009847A5
:104690002DE03B7C10E03B68154802219847601CE8
:1046A0000134B44214DA002CF3DD2B19013B1B78E2
:1046B0000D3B5A425341DBB22A5D0A2AF0D1002B4E
:1046C000EED1A042E7DA3B68211A28189847E2E7C2
:1046D000B04203DA3B68311A28189847002E06DDED
:1046E000AD19013D2B780D3B5A4253413B74F8BD47
:1046F000208F001070B505000368002B16D00C4BFE
:104700001C6805E0290004C92000FFF7B3FFE46836
:10471000002C09D02368002BF9D0064B1B68002B16
:10472000F0D0A342F3D1EDE700232B6070BDC0466B
:10473000441500204C15002070B505000C000B68D6
:10474000802B05D023685A1C2260E418257170BDA7
:104750000800FFF7CFFFF5E710B582B0D0231B06A6
:1047600000241C57074801A903F046FC002806D185
:10477000019B9C4203D0034803F04EFC012002B091
:1047800010BDC046FC0D002010B5024803F01CFC13
:1047900010BDC046FC0D0020F0B5C64600B582B085
:1047A00006000D001700FFF7D7FF80466B1C02D0F4
:1047B000184B1C6805E0300003F02AFA0500F7E703
:1047C000E468002C18D02368002BF9D0124B1B682A
:1047D000002B01D0A342F3D12A0031002000FFF7C3
:1047E00049FF002FECD06B46D91D0A230B70012224
:1047F0002000FFF73FFFE3E74346002B06D16B1E87
:104800009D41E8B202B080BCB846F0BDFFF7BCFFE6
:10481000F5E7C046441500204C1500200C4B1A68E3
:10482000130001E01A00DB68002B08D08342F9D1A5
:10483000002903D1DB68D3600023C36070470029DF
:10484000FCD0002A01D0D060F8E7014B1860F5E7F2
:104850004415002010B5064B1C6801E09847E46839
:10486000002C03D06368002BF8D1F8E710BDC046D8
:104870004415002070B5050003F0CAF904000122B8
:1048800001002800FFF788FFFFF7E4FF200070BD5C
:1048900070B5A2B004000E00FFF75EFF0500842291
:1048A000002101A8FFF7DAFE09483300220001A920
:1048B000FEF70AFF040001A8FFF71CFFFFF7CAFF7D
:1048C000002D02D1200022B070BDFFF75DFFF9E797
:1048D000394700100FB400B583B004A901C9019194
:1048E000FFF7D6FF03B008BC04B0184710B500F0BE
:1048F00087F800F0CBF910BDF0B583B005000E00CD
:1049000000240FE06B46D91D0D230B7000200028FA
:1049100016D193699B06FCD40B78136001300131EA
:10492000F5E70134B44219DA0D4B1A682F5D0D4BCF
:10493000D31859424B410C495B005B5EBB42E1D04E
:104940006B46D91D0F7000200028EAD193699B06A1
:10495000FCD40B78136001300131F5E703B0F0BDF2
:10496000241C00200080FCBF201C0020F0B583B078
:1049700005000E00002004E06B4607331B7823700F
:104980003800B04215DA0E4B1A68936910242100E2
:1049900019401C420DD1471C2C186B46D81D00290C
:1049A000EAD19369DB06FCD413680370013101304E
:1049B000F5E7002801D003B0F0BD0338FBE7C0469F
:1049C000241C002070B515001C000B4B1860FCF770
:1049D00057F8002D06DA002C09DA08480121FFF704
:1049E0001DFF70BD02212800FBF734FFF3E7022111
:1049F0002000FBF72FFFF0E7241C002060050020BB
:104A000010B5064B1B78064B1B78E12101230022D1
:104A100049020448FFF7D6FF10BDC0464897001072
:104A20004C9700100040034070470000014B0022EB
:104A30001A7070473F1C00204B79FF2B0CD18B79EB
:104A4000002B0BD1CB79012B0AD1082A0AD98A78FD
:104A5000054B1A70092000E0002070470020FCE799
:104A60000020FAE70020F8E73F1C002001207047F3
:104A700070B504000D000348FEF73EFE0300290058
:104A8000200098475542000010B5002926D1117921
:104A900053791B020B43124909788B4201D0002045
:104AA00010BD5378012B03D0022B10D00020F7E764
:104AB0009178D3781B021943DB0503D54B0A0120FB
:104AC000984000E000207F231940FFF7D1FF6422C7
:104AD00000210020FDF71AFD0120E1E70120DFE7BA
:104AE0003F1C00200123037000487047648F0010B2
:104AF00010B50A784B781B0213438A7812041A43C4
:104B0000CB781B0613439622D200934200D010BDEF
:104B100000210800FFF7ACFF30B583B004000D00A2
:104B2000184801A903F068FA002808D1D0231B0611
:104B30001B68019A9A4221D0124803F06DFA0020B6
:104B400001F07AFE002807D1032464420D4803F0E7
:104B50003BFA200003B030BD002001F08FFE00289A
:104B600002D103246442F1E72A002100002001F071
:104B700091FE041EEAD103246442E7E70324644261
:104B8000E7E7C046041C002010B50648002103F0EA
:104B900033FA002800D110BD01F0F0FB014803F00A
:104BA00013FAF8E7041C0020F0B5C64600B582B041
:104BB00080460D002E4801A903F01EFA002808D1F6
:104BC000D0231B061B68019A9A420FD0284803F095
:104BD00023FA002001F030FE002847D1254B0020A9
:104BE000002118605960224803F0EEF902B080BC41
:104BF000B846F0BD01F0C2FB002001F05FFE0020CE
:104C000001F01AFE0028EED0002001F0D9FE0028A5
:104C10001DD0AC42E7DA2E1B002001F0D1FE0200CD
:104C2000864200DC3200002AE4D0434619190020F5
:104C300001F0AAFE060001F0A1FB002001F03EFEFB
:104C4000A419FCF77FFC0B4B18605960E1E7FCF7F7
:104C500079FC084B1E685F68074A002392197B4164
:104C60009942C0D8D5D19042D3D9BCE70024D0E72F
:104C7000041C0020200F002020A1070010B51F20D9
:104C8000FDF7C6F9FA208000002110BD70B584B090
:104C9000244B1B7802F0E4F823491F20FDF7C8F9E4
:104CA00001211F20FDF7ACF92048FCF74AFDFCF775
:104CB00071FA0600FCF746FC04000D1E20DBFA2208
:104CC0009200002312196B41994202D804D19042FC
:104CD00002D901225242D317002B17DB0121029186
:104CE00000210191124900913000FCF769FA04009B
:104CF000631E9C41E4B200280ED1200004B070BDB8
:104D00000C4B0D4A0D483D21FCF7D2FF094B0A4AD6
:104D10000A483D21FCF7CCFF09480121FFF77EFD41
:104D2000EBE7C04650970010894B0010041C002090
:104D30007D4C0010C88200109C8F0010E48200108F
:104D400074050020004870473490001000487047F8
:104D5000E08F001010B50400144B1B78002B0DD011
:104D6000002C10D1124B134A5A80012301335B00EF
:104D7000C022920013430E48038010BD0B4811213E
:104D800002F0D6FBECE7052C0ED80B4BA400E45840
:104D90000023122BEAD8E15C0029E7D00133044A52
:104DA00058001152DBB2F4E70020E6E7281C00208F
:104DB0001C150020090400004890001002007F200C
:104DC0001040D209400080184001014BC0187047C4
:104DD0005415002010B582B001AB084A1A80002497
:104DE00008E001AB185DFFF7E9FF0123C370002362
:104DF00003740134012CF4D902B010BD0080FFFF10
:104E000010B5828B131C402A00D940239BB216494F
:104E10000A68C260D3180B60990604D03F218B4307
:104E2000403311490B60104B19688B060FD10F4BA3
:104E30005A404B40802149018B420ED8837F9B060C
:104E40001343A022120613434268136010BD084B9F
:104E5000084A09485221FCF72BFF084B054A06482F
:104E60005421FCF725FFC0465C19002000001050BB
:104E700060900010B891001090900010E490001025
:104E8000F8B504007F2528000840CF09A1707E42B4
:104E90007E4166700D421AD10121E170012B18D0BC
:104EA000402A1ED8A283A377012F1ED0C3001D4A1B
:104EB00094466344A360A36800221A6000281AD1B4
:104EC00000236360184BE36001232370F8BD0021C9
:104ED000E3E78021C9008A42E4D314481100FCF7BB
:104EE00005FF12481100FCF701FFC300104A944669
:104EF0006344A360DFE7012F0CD00138C0000D4BE5
:104F00009C46604460602378002BDDD12000FFF7D1
:104F100077FFD9E70138C000074B9C4660446060CA
:104F2000F1E7C046840010500001105018910010A5
:104F3000800010500C0010500800105070B5040094
:104F40000D001600FFF73AFF33002A002100FFF79B
:104F500097FF70BDF0B5CE46474680B583B0244B71
:104F60009B6D9846002601250AE0224B224A2348E1
:104F7000DA21FCF79DFE4346AB4398466D000136AF
:104F80004346002B2ED01F2E2CD843461D42F5D071
:104F9000174BDB6D1D42E8D1194B9D65720801234B
:104FA000334059424B41D9B28946FF2717407A0016
:104FB0009B185C01134BE418200000F0C1FA002894
:104FC000D9D0104B7F004F447F01DB199A8A997822
:104FD000012300930023002000F042FE200000F097
:104FE000FDF9C8E703B0C0BCB946B046F0BDC04645
:104FF0000000115040910010CC91001090900010D2
:10500000003011505415002070B5254A9823D4580B
:1050100080235B0225001D401C4213D1E3061FD4F0
:10502000A3040AD580239B011D431D4B1B6DDB038D
:105030001BD51C4B802252021A65E3041BD4A542E7
:1050400029D170BDFFF7C6FE01221749002000F0EC
:10505000EDFD144B802292021A6580256D02DDE77A
:1050600010231D43FFF776FFDAE70122022100201B
:1050700000F0B4FDDDE70A4B00221A6080235B01DB
:105080001D4301320021002000F0BBFD054B8022B2
:1050900012031A65D3E7290061400448FCF726FE95
:1050A0000000115000301150000010504C910010C1
:1050B00070B50C0015001E00FFF780FE33002A00BB
:1050C000210000F06DFA70BD10B5FFF783FE0123DB
:1050D000002200218020FFF7EBFF10BD10B5040077
:1050E000037C002B11D183785A0605D1DB09012BF3
:1050F00012D00222094B9A66802212010849200030
:1051000000F074F90123237410BD064B064A0421F4
:105110000648FF31FCF7CCFD0122EBE700201150DF
:10512000FFF7FFFF60910010949100109090001025
:1051300010B5FFF743FEFFF7D1FF10BD10B5040017
:1051400083785A0605D1DB09012B0AD00222064BCF
:105150009A6600220549200000F048F900232374D4
:1051600010BD0122F3E7C04600301150FFF7FFFFEA
:1051700010B5FFF723FEFFF7E1FF10BD10B50028C3
:1051800004D101210520FCF73BFF10BD034B044A6D
:10519000AA210448FF31FCF78BFDC0467091001036
:1051A000A89100109090001010B5002802D1FFF7D0
:1051B0008BFF10BD034B044ADB2104484900FCF778
:1051C00077FDC0467091001048920010909000103A
:1051D00010B5002804D1064B80225202DA6410BDBB
:1051E000044B054AD0210548FF31FCF761FDC0465C
:1051F00000201150709100103C920010909000100F
:1052000010B5041E25D100F0C1F815490520FCF7A2
:105210000FFF14488022D2000021FFF71FFA124B23
:10522000124A1A60002240210020FFF787FE002268
:1052300040218020FFF782FE0D4B01221A6480225C
:105240009205DA6490220B4999502000FFF7C0FFC5
:1052500010BD094B094AC52109484900FCF728FD42
:1052600009500010541500205C19002080011050D6
:10527000000011501030010070910010E4910010F6
:105280009090001010B5002808D10B785B0602D171
:105290004B78052B09D0FFF79DFD10BD054B064A45
:1052A000ED2106484900FCF703FD8A78044B1A609B
:1052B000F1E7C0467091001020920010909000100D
:1052C0000000115010B50A0000280DD188780C7923
:1052D0004B790721194009022143D2789207920F96
:1052E000FFF72CFE012010BD034B044AF5210448B2
:1052F0004900FCF7DDFCC0467091001010920010D0
:105300009090001010B50400080011001A00002C45
:1053100004D10123FFF7CCFE012010BD034B044A4A
:10532000F2210448FF31FCF7C3FCC0467091001025
:10533000009200109090001010B5002803D10800D2
:10534000FFF7F6FE10BD034B034AFD210348490059
:10535000FCF7AEFC70910010F091001090900010DE
:1053600010B5002803D10800FFF702FF10BD034B62
:10537000034A04480449FCF79BFCC04670910010A6
:105380007C910010909000100102000010B5802365
:105390005B040D4A13600D4A13600D4B9A6880231D
:1053A0005B049343F9D10B4C9C2200212000FFF7B2
:1053B00055F98022520100210748FFF74FF90923D0
:1053C00063670333A36710BD00E0004000F00040B6
:1053D00000C0004000001150000010500023037472
:1053E000437443828382C3828361704710B500296E
:1053F00002D083681B681940002A0FD01143520560
:105400000CD5826813685B050BD40B4B0B40136003
:10541000FFE7FFE7FFE7FFE7FFE7FFE783681960C4
:1054200010BD83787F211940DB09044A9B000448A2
:105430009A58FCF75BFCC046FFFBFFFF8805002085
:105440005892001070B50400C58A8022D2002A4309
:105450004378002B0DD0E378002B15D080218901F3
:105460000A4301214B40E37000212000FFF7BEFFFB
:1054700070BDC068A169A38AC9182A00FFF7F4F8B3
:10548000024A2A4392B2E6E70021E9E70084FFFFDF
:1054900070B504000E001500437C002B14D165820A
:1054A0000023A382A28B131C3F2A00D840232A1C6E
:1054B00099B28D4200D91A1CE28201236374A6615D
:1054C0002000FFF7BFFF70BDFFF788FFE7E7000090
:1054D00070B5040083681B689D05AD0D4278002AF5
:1054E00013D11B040BD4838AEB1883826378002BBF
:1054F00004D0E38AAB4201D9A38A638270BD0C4B0E
:105500000C4A0D48EA21FCF7D3FB1B040AD580693D
:10551000A38AC018E1682A00FFF7A6F8A38AEB184F
:10552000A382E3E7054B034A0348F421FCF7C0FBE1
:10553000789200108093001098920010EC92001066
:10554000F8B50400457C002D19D0FFF7C1FF618A32
:10555000A28A8B1A9BB2A08B061C3F2800D840263B
:10556000181CB7B2BB4200D9301CE08291420DD367
:1055700003D02000FFF766FF00252800F8BD8178E2
:105580007F231940034A0448FCF7B0FB0348FCF7AB
:10559000ADFBC046880500200C9300103893001026
:1055A00010B50478002C04D0002B09D0FFF770FF51
:1055B00010BD054B054A3A210548FF31FCF778FB41
:1055C000FFF7BEFFF4E7C0465C9300106C93001039
:1055D0009892001070B5002503E00E787519ADB2F1
:1055E000891995420AD24C78052CF6D18E787A34F6
:1055F000344064000419F609A355EEE770BD0000BD
:1056000070B505001B4C372200212000FFF726F85B
:10561000E01C1022FF21FFF721F820001330122296
:10562000FF21FFF71BF801F047F800240EE06200AD
:105630001219D200104B1B689B1802E0230010E0E7
:1056400000235B68280098470134E4B20B4B1B78B9
:10565000A3420ED30A4A002AF0D0A342E7D8E31AA5
:10566000DBB2002BECD1074A5900C918C900531806
:10567000E7E770BD9C120020640F0020391C002059
:10568000E54A0010D094001070B505000C0016001B
:10569000C86801F01BF8E368320000212800984731
:1056A00070BD0000F0B5D6464F464646C0B58046B0
:1056B0000139C8B2FFF74AFB002802D04378022B19
:1056C0000AD060496048614AFFF704F90020E0BC55
:1056D000BA46B146A846F0BDC5796C1101225C4BB3
:1056E0001440240119781026B14321431970AD11DB
:1056F0002A405201C9B22024A1430A431A7006006D
:1057000009368278C3781B02134382469A4478E0B4
:105710003378B146F6187BE04A494B484D4AFFF7CB
:10572000D9F80020D3E762001219D2004A4B1B6857
:105730009B1802E0230014E000239B683A0031002C
:1057400040469847051E14D10134E4B2434B1B7800
:10575000A34252D3424A002AECD0A342E3D8E31A30
:10576000DBB2002BE8D13F4A5900C918C9005318D1
:10577000E3E7082823D9874221D3B278344B9B181A
:10578000DB78FF2B22D1324B9B18DC704B46002B71
:105790002BD09A78B3789A4220D14B461A797379F4
:1057A0009A421BD101234A46D2789A421DD9B17838
:1057B0005918274A5218D4700133DBB2F3E7214954
:1057C0002148294AFFF786F8002080E7D8221D49A2
:1057D0001D489200FFF77EF8002078E719491A4823
:1057E000224AFFF777F8002071E7194813302300A9
:1057F0002A003100FFF7EEFE7619184B1B78A34202
:105800000FD3564514D273780B2B81D000239946C1
:105810007378042B00D07FE753469F1BBFB2002450
:1058200094E708490848124AFFF754F800204EE769
:10583000104B002B03D000E000BF012047E7012000
:1058400045E7C04698940010989300103A03000072
:105850009C1200204F030000640F0020391C002020
:10586000E54A0010D09400105D03000069030000B9
:105870007B03000000000000F0B583B005000C00C1
:10588000CB7888780F2B5DD89B00324AD3589F463F
:10589000FFF758FA020012232100280000F0B8FE9A
:1058A00051E02D4B002B10D000E000BF06006B46EE
:1058B0009F1D811C02223800FEF7D6FE3B88320075
:1058C0002100280000F0A4FE3DE000203BE0FFF7AF
:1058D0003DFA061E0DD06B469F1D811C022238002A
:1058E000FEF7C2FE3B8832002100280000F090FE47
:1058F00029E01A491A481B4AFEF7ECFF002022E073
:105900000B79497909021943FFF724FA021E1CD0CA
:1059100003782100280000F07BFE14E0124B002BDE
:1059200015D000E000BF021E05D00378210028003A
:1059300000F06EFE07E0094909480C4AFEF7CAFF6D
:10594000002000E0002003B0F0BD0020FBE70020B5
:10595000F9E7C046B09300100000000080940010EA
:1059600098930010C903000000000000E903000044
:10597000024B5878431E9841C0B270479C120020D9
:10598000024B18784007C00F7047C0469C12002099
:10599000014B18787047C0463A1C002070B50500CE
:1059A000274B1878002800D070BD264837220021E8
:1059B000FEF754FE244C2000FBF7C3FE234B1C6073
:1059C000234C20001C30FBF7D1FE200001F064FDC9
:1059D000204B1C60204B002B04D02048FFF782F89E
:1059E0001F4B186000240DE062001219D2001C4BFE
:1059F0001B689B1802E023000FE000231B689847F8
:105A00000134E4B2154B1B78A3420ED3124A002A8C
:105A1000F1D0A342E8D8E31ADBB2002BEDD1114A52
:105A20005900C918C9005318E8E72800FFF7E8FB38
:105A30002800FFF7A3FB024B01221A700120B3E7F5
:105A40003A1C00209C12002054120020D412002086
:105A500090050020D8120020E54A0010391C0020D3
:105A6000640F0020D094001010B501004378042B7F
:105A700063D005D8022B2ED0032B00D086E010BDBA
:105A8000052B00D082E0514B1B78DB07F7D54F4A3E
:105A900013780420834313704D4B1C68E269EFF3C5
:105AA000108072B61368002BFCD0BFF35F8F2062AA
:105AB000200001F0B7FCE269236ABFF35F8F002189
:105AC000116083F310880028D9D142494248A822A6
:105AD000FEF700FFD3E73D4B1B78DB07CFD53B4BF1
